{
  "contractName": "JokeToken",
  "abi": [
    {
      "inputs": [
        {
          "internalType": "string",
          "name": "name",
          "type": "string"
        },
        {
          "internalType": "string",
          "name": "symbol",
          "type": "string"
        },
        {
          "internalType": "uint256",
          "name": "_maxTokenSupply",
          "type": "uint256"
        }
      ],
      "stateMutability": "nonpayable",
      "type": "constructor"
    },
    {
      "anonymous": false,
      "inputs": [
        {
          "indexed": true,
          "internalType": "address",
          "name": "owner",
          "type": "address"
        },
        {
          "indexed": true,
          "internalType": "address",
          "name": "spender",
          "type": "address"
        },
        {
          "indexed": false,
          "internalType": "uint256",
          "name": "value",
          "type": "uint256"
        }
      ],
      "name": "Approval",
      "type": "event"
    },
    {
      "anonymous": false,
      "inputs": [
        {
          "indexed": true,
          "internalType": "address",
          "name": "from",
          "type": "address"
        },
        {
          "indexed": true,
          "internalType": "address",
          "name": "to",
          "type": "address"
        },
        {
          "indexed": false,
          "internalType": "uint256",
          "name": "value",
          "type": "uint256"
        }
      ],
      "name": "Transfer",
      "type": "event"
    },
    {
      "inputs": [],
      "name": "admin",
      "outputs": [
        {
          "internalType": "address",
          "name": "",
          "type": "address"
        }
      ],
      "stateMutability": "view",
      "type": "function",
      "constant": true
    },
    {
      "inputs": [
        {
          "internalType": "address",
          "name": "owner",
          "type": "address"
        },
        {
          "internalType": "address",
          "name": "spender",
          "type": "address"
        }
      ],
      "name": "allowance",
      "outputs": [
        {
          "internalType": "uint256",
          "name": "",
          "type": "uint256"
        }
      ],
      "stateMutability": "view",
      "type": "function",
      "constant": true
    },
    {
      "inputs": [
        {
          "internalType": "address",
          "name": "spender",
          "type": "address"
        },
        {
          "internalType": "uint256",
          "name": "amount",
          "type": "uint256"
        }
      ],
      "name": "approve",
      "outputs": [
        {
          "internalType": "bool",
          "name": "",
          "type": "bool"
        }
      ],
      "stateMutability": "nonpayable",
      "type": "function"
    },
    {
      "inputs": [
        {
          "internalType": "address",
          "name": "account",
          "type": "address"
        }
      ],
      "name": "balanceOf",
      "outputs": [
        {
          "internalType": "uint256",
          "name": "",
          "type": "uint256"
        }
      ],
      "stateMutability": "view",
      "type": "function",
      "constant": true
    },
    {
      "inputs": [],
      "name": "decimals",
      "outputs": [
        {
          "internalType": "uint8",
          "name": "",
          "type": "uint8"
        }
      ],
      "stateMutability": "view",
      "type": "function",
      "constant": true
    },
    {
      "inputs": [
        {
          "internalType": "address",
          "name": "spender",
          "type": "address"
        },
        {
          "internalType": "uint256",
          "name": "subtractedValue",
          "type": "uint256"
        }
      ],
      "name": "decreaseAllowance",
      "outputs": [
        {
          "internalType": "bool",
          "name": "",
          "type": "bool"
        }
      ],
      "stateMutability": "nonpayable",
      "type": "function"
    },
    {
      "inputs": [
        {
          "internalType": "address",
          "name": "spender",
          "type": "address"
        },
        {
          "internalType": "uint256",
          "name": "addedValue",
          "type": "uint256"
        }
      ],
      "name": "increaseAllowance",
      "outputs": [
        {
          "internalType": "bool",
          "name": "",
          "type": "bool"
        }
      ],
      "stateMutability": "nonpayable",
      "type": "function"
    },
    {
      "inputs": [],
      "name": "maxTotalSupply",
      "outputs": [
        {
          "internalType": "uint256",
          "name": "",
          "type": "uint256"
        }
      ],
      "stateMutability": "view",
      "type": "function",
      "constant": true
    },
    {
      "inputs": [],
      "name": "name",
      "outputs": [
        {
          "internalType": "string",
          "name": "",
          "type": "string"
        }
      ],
      "stateMutability": "view",
      "type": "function",
      "constant": true
    },
    {
      "inputs": [],
      "name": "symbol",
      "outputs": [
        {
          "internalType": "string",
          "name": "",
          "type": "string"
        }
      ],
      "stateMutability": "view",
      "type": "function",
      "constant": true
    },
    {
      "inputs": [],
      "name": "totalSupply",
      "outputs": [
        {
          "internalType": "uint256",
          "name": "",
          "type": "uint256"
        }
      ],
      "stateMutability": "view",
      "type": "function",
      "constant": true
    },
    {
      "inputs": [
        {
          "internalType": "address",
          "name": "recipient",
          "type": "address"
        },
        {
          "internalType": "uint256",
          "name": "amount",
          "type": "uint256"
        }
      ],
      "name": "transfer",
      "outputs": [
        {
          "internalType": "bool",
          "name": "",
          "type": "bool"
        }
      ],
      "stateMutability": "nonpayable",
      "type": "function"
    },
    {
      "inputs": [
        {
          "internalType": "address",
          "name": "sender",
          "type": "address"
        },
        {
          "internalType": "address",
          "name": "recipient",
          "type": "address"
        },
        {
          "internalType": "uint256",
          "name": "amount",
          "type": "uint256"
        }
      ],
      "name": "transferFrom",
      "outputs": [
        {
          "internalType": "bool",
          "name": "",
          "type": "bool"
        }
      ],
      "stateMutability": "nonpayable",
      "type": "function"
    },
    {
      "inputs": [
        {
          "internalType": "address",
          "name": "newAdmin",
          "type": "address"
        }
      ],
      "name": "updateAdmin",
      "outputs": [],
      "stateMutability": "nonpayable",
      "type": "function"
    },
    {
      "inputs": [
        {
          "internalType": "address",
          "name": "account",
          "type": "address"
        },
        {
          "internalType": "uint256",
          "name": "amount",
          "type": "uint256"
        }
      ],
      "name": "mint",
      "outputs": [],
      "stateMutability": "nonpayable",
      "type": "function"
    }
  ],
  "bytecode": "0x60806040523480156200001157600080fd5b5060405162001d3a38038062001d3a8339818101604052810190620000379190620001f7565b8282816003908051906020019062000051929190620000be565b5080600490805190602001906200006a929190620000be565b50505033600560006101000a81548173ffffffffffffffffffffffffffffffffffffffff021916908373ffffffffffffffffffffffffffffffffffffffff16021790555080600681905550505050620003d4565b828054620000cc9062000326565b90600052602060002090601f016020900481019282620000f057600085556200013c565b82601f106200010b57805160ff19168380011785556200013c565b828001600101855582156200013c579182015b828111156200013b5782518255916020019190600101906200011e565b5b5090506200014b91906200014f565b5090565b5b808211156200016a57600081600090555060010162000150565b5090565b6000620001856200017f84620002b3565b6200027f565b9050828152602081018484840111156200019e57600080fd5b620001ab848285620002f0565b509392505050565b600082601f830112620001c557600080fd5b8151620001d78482602086016200016e565b91505092915050565b600081519050620001f181620003ba565b92915050565b6000806000606084860312156200020d57600080fd5b600084015167ffffffffffffffff8111156200022857600080fd5b6200023686828701620001b3565b935050602084015167ffffffffffffffff8111156200025457600080fd5b6200026286828701620001b3565b92505060406200027586828701620001e0565b9150509250925092565b6000604051905081810181811067ffffffffffffffff82111715620002a957620002a86200038b565b5b8060405250919050565b600067ffffffffffffffff821115620002d157620002d06200038b565b5b601f19601f8301169050602081019050919050565b6000819050919050565b60005b8381101562000310578082015181840152602081019050620002f3565b8381111562000320576000848401525b50505050565b600060028204905060018216806200033f57607f821691505b602082108114156200035657620003556200035c565b5b50919050565b7f4e487b7100000000000000000000000000000000000000000000000000000000600052602260045260246000fd5b7f4e487b7100000000000000000000000000000000000000000000000000000000600052604160045260246000fd5b620003c581620002e6565b8114620003d157600080fd5b50565b61195680620003e46000396000f3fe608060405234801561001057600080fd5b50600436106100f55760003560e01c806340c10f1911610097578063a9059cbb11610066578063a9059cbb1461029c578063dd62ed3e146102cc578063e2f273bd146102fc578063f851a44014610318576100f5565b806340c10f191461020257806370a082311461021e57806395d89b411461024e578063a457c2d71461026c576100f5565b806323b872dd116100d357806323b872dd146101665780632ab4d05214610196578063313ce567146101b457806339509351146101d2576100f5565b806306fdde03146100fa578063095ea7b31461011857806318160ddd14610148575b600080fd5b610102610336565b60405161010f919061156b565b60405180910390f35b610132600480360381019061012d91906110ba565b6103c8565b60405161013f9190611550565b60405180910390f35b6101506103e6565b60405161015d91906116ed565b60405180910390f35b610180600480360381019061017b919061106b565b6103f0565b60405161018d9190611550565b60405180910390f35b61019e6104f1565b6040516101ab91906116ed565b60405180910390f35b6101bc6104f7565b6040516101c99190611708565b60405180910390f35b6101ec60048036038101906101e791906110ba565b610500565b6040516101f99190611550565b60405180910390f35b61021c600480360381019061021791906110ba565b6105ac565b005b61023860048036038101906102339190611006565b6106ae565b60405161024591906116ed565b60405180910390f35b6102566106f6565b604051610263919061156b565b60405180910390f35b610286600480360381019061028191906110ba565b610788565b6040516102939190611550565b60405180910390f35b6102b660048036038101906102b191906110ba565b61087c565b6040516102c39190611550565b60405180910390f35b6102e660048036038101906102e1919061102f565b61089a565b6040516102f391906116ed565b60405180910390f35b61031660048036038101906103119190611006565b610921565b005b6103206109f5565b60405161032d9190611535565b60405180910390f35b60606003805461034590611851565b80601f016020809104026020016040519081016040528092919081815260200182805461037190611851565b80156103be5780601f10610393576101008083540402835291602001916103be565b820191906000526020600020905b8154815290600101906020018083116103a157829003601f168201915b5050505050905090565b60006103dc6103d5610a1b565b8484610a23565b6001905092915050565b6000600254905090565b60006103fd848484610bee565b6000600160008673ffffffffffffffffffffffffffffffffffffffff1673ffffffffffffffffffffffffffffffffffffffff1681526020019081526020016000206000610448610a1b565b73ffffffffffffffffffffffffffffffffffffffff1673ffffffffffffffffffffffffffffffffffffffff168152602001908152602001600020549050828110156104c8576040517f08c379a00000000000000000000000000000000000000000000000000000000081526004016104bf9061160d565b60405180910390fd5b6104e5856104d4610a1b565b85846104e09190611795565b610a23565b60019150509392505050565b60065481565b60006012905090565b60006105a261050d610a1b565b84846001600061051b610a1b565b73ffffffffffffffffffffffffffffffffffffffff1673ffffffffffffffffffffffffffffffffffffffff16815260200190815260200160002060008873ffffffffffffffffffffffffffffffffffffffff1673ffffffffffffffffffffffffffffffffffffffff1681526020019081526020016000205461059d919061173f565b610a23565b6001905092915050565b600560009054906101000a900473ffffffffffffffffffffffffffffffffffffffff1673ffffffffffffffffffffffffffffffffffffffff163373ffffffffffffffffffffffffffffffffffffffff161461063c576040517f08c379a00000000000000000000000000000000000000000000000000000000081526004016106339061162d565b60405180910390fd5b60006106466103e6565b905060065461065e8383610e6d90919063ffffffff16565b111561069f576040517f08c379a00000000000000000000000000000000000000000000000000000000081526004016106969061168d565b60405180910390fd5b6106a98383610e83565b505050565b60008060008373ffffffffffffffffffffffffffffffffffffffff1673ffffffffffffffffffffffffffffffffffffffff168152602001908152602001600020549050919050565b60606004805461070590611851565b80601f016020809104026020016040519081016040528092919081815260200182805461073190611851565b801561077e5780601f106107535761010080835404028352916020019161077e565b820191906000526020600020905b81548152906001019060200180831161076157829003601f168201915b5050505050905090565b60008060016000610797610a1b565b73ffffffffffffffffffffffffffffffffffffffff1673ffffffffffffffffffffffffffffffffffffffff16815260200190815260200160002060008573ffffffffffffffffffffffffffffffffffffffff1673ffffffffffffffffffffffffffffffffffffffff16815260200190815260200160002054905082811015610854576040517f08c379a000000000000000000000000000000000000000000000000000000000815260040161084b906116ad565b60405180910390fd5b61087161085f610a1b565b85858461086c9190611795565b610a23565b600191505092915050565b6000610890610889610a1b565b8484610bee565b6001905092915050565b6000600160008473ffffffffffffffffffffffffffffffffffffffff1673ffffffffffffffffffffffffffffffffffffffff16815260200190815260200160002060008373ffffffffffffffffffffffffffffffffffffffff1673ffffffffffffffffffffffffffffffffffffffff16815260200190815260200160002054905092915050565b600560009054906101000a900473ffffffffffffffffffffffffffffffffffffffff1673ffffffffffffffffffffffffffffffffffffffff163373ffffffffffffffffffffffffffffffffffffffff16146109b1576040517f08c379a00000000000000000000000000000000000000000000000000000000081526004016109a8906115cd565b60405180910390fd5b80600560006101000a81548173ffffffffffffffffffffffffffffffffffffffff021916908373ffffffffffffffffffffffffffffffffffffffff16021790555050565b600560009054906101000a900473ffffffffffffffffffffffffffffffffffffffff1681565b600033905090565b600073ffffffffffffffffffffffffffffffffffffffff168373ffffffffffffffffffffffffffffffffffffffff161415610a93576040517f08c379a0000000000000000000000000000000000000000000000000000000008152600401610a8a9061166d565b60405180910390fd5b600073ffffffffffffffffffffffffffffffffffffffff168273ffffffffffffffffffffffffffffffffffffffff161415610b03576040517f08c379a0000000000000000000000000000000000000000000000000000000008152600401610afa906115ad565b60405180910390fd5b80600160008573ffffffffffffffffffffffffffffffffffffffff1673ffffffffffffffffffffffffffffffffffffffff16815260200190815260200160002060008473ffffffffffffffffffffffffffffffffffffffff1673ffffffffffffffffffffffffffffffffffffffff168152602001908152602001600020819055508173ffffffffffffffffffffffffffffffffffffffff168373ffffffffffffffffffffffffffffffffffffffff167f8c5be1e5ebec7d5bd14f71427d1e84f3dd0314c0f7b2291e5b200ac8c7c3b92583604051610be191906116ed565b60405180910390a3505050565b600073ffffffffffffffffffffffffffffffffffffffff168373ffffffffffffffffffffffffffffffffffffffff161415610c5e576040517f08c379a0000000000000000000000000000000000000000000000000000000008152600401610c559061164d565b60405180910390fd5b600073ffffffffffffffffffffffffffffffffffffffff168273ffffffffffffffffffffffffffffffffffffffff161415610cce576040517f08c379a0000000000000000000000000000000000000000000000000000000008152600401610cc59061158d565b60405180910390fd5b610cd9838383610fd7565b60008060008573ffffffffffffffffffffffffffffffffffffffff1673ffffffffffffffffffffffffffffffffffffffff16815260200190815260200160002054905081811015610d5f576040517f08c379a0000000000000000000000000000000000000000000000000000000008152600401610d56906115ed565b60405180910390fd5b8181610d6b9190611795565b6000808673ffffffffffffffffffffffffffffffffffffffff1673ffffffffffffffffffffffffffffffffffffffff16815260200190815260200160002081905550816000808573ffffffffffffffffffffffffffffffffffffffff1673ffffffffffffffffffffffffffffffffffffffff1681526020019081526020016000206000828254610dfb919061173f565b925050819055508273ffffffffffffffffffffffffffffffffffffffff168473ffffffffffffffffffffffffffffffffffffffff167fddf252ad1be2c89b69c2b068fc378daa952ba7f163c4a11628f55a4df523b3ef84604051610e5f91906116ed565b60405180910390a350505050565b60008183610e7b919061173f565b905092915050565b600073ffffffffffffffffffffffffffffffffffffffff168273ffffffffffffffffffffffffffffffffffffffff161415610ef3576040517f08c379a0000000000000000000000000000000000000000000000000000000008152600401610eea906116cd565b60405180910390fd5b610eff60008383610fd7565b8060026000828254610f11919061173f565b92505081905550806000808473ffffffffffffffffffffffffffffffffffffffff1673ffffffffffffffffffffffffffffffffffffffff1681526020019081526020016000206000828254610f66919061173f565b925050819055508173ffffffffffffffffffffffffffffffffffffffff16600073ffffffffffffffffffffffffffffffffffffffff167fddf252ad1be2c89b69c2b068fc378daa952ba7f163c4a11628f55a4df523b3ef83604051610fcb91906116ed565b60405180910390a35050565b505050565b600081359050610feb816118f2565b92915050565b60008135905061100081611909565b92915050565b60006020828403121561101857600080fd5b600061102684828501610fdc565b91505092915050565b6000806040838503121561104257600080fd5b600061105085828601610fdc565b925050602061106185828601610fdc565b9150509250929050565b60008060006060848603121561108057600080fd5b600061108e86828701610fdc565b935050602061109f86828701610fdc565b92505060406110b086828701610ff1565b9150509250925092565b600080604083850312156110cd57600080fd5b60006110db85828601610fdc565b92505060206110ec85828601610ff1565b9150509250929050565b6110ff816117c9565b82525050565b61110e816117db565b82525050565b600061111f82611723565b611129818561172e565b935061113981856020860161181e565b611142816118e1565b840191505092915050565b600061115a60238361172e565b91507f45524332303a207472616e7366657220746f20746865207a65726f206164647260008301527f65737300000000000000000000000000000000000000000000000000000000006020830152604082019050919050565b60006111c060228361172e565b91507f45524332303a20617070726f766520746f20746865207a65726f20616464726560008301527f73730000000000000000000000000000000000000000000000000000000000006020830152604082019050919050565b6000611226601b8361172e565b91507f6f6e6c792061646d696e2063616e207570646174652061646d696e00000000006000830152602082019050919050565b600061126660268361172e565b91507f45524332303a207472616e7366657220616d6f756e742065786365656473206260008301527f616c616e636500000000000000000000000000000000000000000000000000006020830152604082019050919050565b60006112cc60288361172e565b91507f45524332303a207472616e7366657220616d6f756e742065786365656473206160008301527f6c6c6f77616e63650000000000000000000000000000000000000000000000006020830152604082019050919050565b600061133260198361172e565b91507f6f6e6c792061646d696e2063616e206d696e7420746f6b656e000000000000006000830152602082019050919050565b600061137260258361172e565b91507f45524332303a207472616e736665722066726f6d20746865207a65726f20616460008301527f64726573730000000000000000000000000000000000000000000000000000006020830152604082019050919050565b60006113d860248361172e565b91507f45524332303a20617070726f76652066726f6d20746865207a65726f2061646460008301527f72657373000000000000000000000000000000000000000000000000000000006020830152604082019050919050565b600061143e601e8361172e565b91507f63616e74206d696e74206d6f7265207468616e206d617820737570706c7900006000830152602082019050919050565b600061147e60258361172e565b91507f45524332303a2064656372656173656420616c6c6f77616e63652062656c6f7760008301527f207a65726f0000000000000000000000000000000000000000000000000000006020830152604082019050919050565b60006114e4601f8361172e565b91507f45524332303a206d696e7420746f20746865207a65726f2061646472657373006000830152602082019050919050565b61152081611807565b82525050565b61152f81611811565b82525050565b600060208201905061154a60008301846110f6565b92915050565b60006020820190506115656000830184611105565b92915050565b600060208201905081810360008301526115858184611114565b905092915050565b600060208201905081810360008301526115a68161114d565b9050919050565b600060208201905081810360008301526115c6816111b3565b9050919050565b600060208201905081810360008301526115e681611219565b9050919050565b6000602082019050818103600083015261160681611259565b9050919050565b60006020820190508181036000830152611626816112bf565b9050919050565b6000602082019050818103600083015261164681611325565b9050919050565b6000602082019050818103600083015261166681611365565b9050919050565b60006020820190508181036000830152611686816113cb565b9050919050565b600060208201905081810360008301526116a681611431565b9050919050565b600060208201905081810360008301526116c681611471565b9050919050565b600060208201905081810360008301526116e6816114d7565b9050919050565b60006020820190506117026000830184611517565b92915050565b600060208201905061171d6000830184611526565b92915050565b600081519050919050565b600082825260208201905092915050565b600061174a82611807565b915061175583611807565b9250827fffffffffffffffffffffffffffffffffffffffffffffffffffffffffffffffff0382111561178a57611789611883565b5b828201905092915050565b60006117a082611807565b91506117ab83611807565b9250828210156117be576117bd611883565b5b828203905092915050565b60006117d4826117e7565b9050919050565b60008115159050919050565b600073ffffffffffffffffffffffffffffffffffffffff82169050919050565b6000819050919050565b600060ff82169050919050565b60005b8381101561183c578082015181840152602081019050611821565b8381111561184b576000848401525b50505050565b6000600282049050600182168061186957607f821691505b6020821081141561187d5761187c6118b2565b5b50919050565b7f4e487b7100000000000000000000000000000000000000000000000000000000600052601160045260246000fd5b7f4e487b7100000000000000000000000000000000000000000000000000000000600052602260045260246000fd5b6000601f19601f8301169050919050565b6118fb816117c9565b811461190657600080fd5b50565b61191281611807565b811461191d57600080fd5b5056fea26469706673582212203f84bb8f01d1168fe0efe7c3f762cdb6ce4fb087dcfd95b4419a9b5d9afa2c0d64736f6c63430008000033",
  "immutableReferences": {},
  "source": "// SPDX-License-Identifier: MIT\npragma solidity >=0.4.22 <0.9.0;\n\nimport \"@openzeppelin/contracts/token/ERC20/ERC20.sol\";\nimport \"@openzeppelin/contracts/utils/math/SafeMath.sol\";\n\ncontract JokeToken is ERC20 {\n\n  using SafeMath for uint;\n  address public admin;\n  uint public maxTotalSupply;\n\n  constructor(\n    string memory name,\n    string memory symbol,\n    uint _maxTokenSupply\n    ) ERC20(name, symbol) {\n      admin = msg.sender;\n      maxTotalSupply = _maxTokenSupply;\n    }\n\n  function updateAdmin(address newAdmin) public {\n    require(msg.sender == admin, \"only admin can update admin\");\n    admin = newAdmin;\n  }\n\n  function mint(address account, uint256 amount) public {\n    require(msg.sender == admin, \"only admin can mint token\");\n    uint totalSupply = totalSupply();\n    require(\n      totalSupply.add(amount) <= maxTotalSupply,\n      \"cant mint more than max supply\"\n      );\n      _mint(account, amount);\n  }\n}\n",
  "sourcePath": "/home/bhaskar/Desktop/Me/crypto/joke_try2/contracts/JokeToken.sol",
  "compiler": {
    "name": "solc",
    "version": "0.8.0+commit.c7dfd78e.Emscripten.clang"
  },
  "schemaVersion": "3.3.4",
  "updatedAt": "2021-05-15T22:10:46.043Z",
  "networkType": "ethereum",
  "devdoc": {
    "kind": "dev",
    "methods": {
      "allowance(address,address)": {
        "details": "See {IERC20-allowance}."
      },
      "approve(address,uint256)": {
        "details": "See {IERC20-approve}. Requirements: - `spender` cannot be the zero address."
      },
      "balanceOf(address)": {
        "details": "See {IERC20-balanceOf}."
      },
      "decimals()": {
        "details": "Returns the number of decimals used to get its user representation. For example, if `decimals` equals `2`, a balance of `505` tokens should be displayed to a user as `5,05` (`505 / 10 ** 2`). Tokens usually opt for a value of 18, imitating the relationship between Ether and Wei. This is the value {ERC20} uses, unless this function is overridden; NOTE: This information is only used for _display_ purposes: it in no way affects any of the arithmetic of the contract, including {IERC20-balanceOf} and {IERC20-transfer}."
      },
      "decreaseAllowance(address,uint256)": {
        "details": "Atomically decreases the allowance granted to `spender` by the caller. This is an alternative to {approve} that can be used as a mitigation for problems described in {IERC20-approve}. Emits an {Approval} event indicating the updated allowance. Requirements: - `spender` cannot be the zero address. - `spender` must have allowance for the caller of at least `subtractedValue`."
      },
      "increaseAllowance(address,uint256)": {
        "details": "Atomically increases the allowance granted to `spender` by the caller. This is an alternative to {approve} that can be used as a mitigation for problems described in {IERC20-approve}. Emits an {Approval} event indicating the updated allowance. Requirements: - `spender` cannot be the zero address."
      },
      "name()": {
        "details": "Returns the name of the token."
      },
      "symbol()": {
        "details": "Returns the symbol of the token, usually a shorter version of the name."
      },
      "totalSupply()": {
        "details": "See {IERC20-totalSupply}."
      },
      "transfer(address,uint256)": {
        "details": "See {IERC20-transfer}. Requirements: - `recipient` cannot be the zero address. - the caller must have a balance of at least `amount`."
      },
      "transferFrom(address,address,uint256)": {
        "details": "See {IERC20-transferFrom}. Emits an {Approval} event indicating the updated allowance. This is not required by the EIP. See the note at the beginning of {ERC20}. Requirements: - `sender` and `recipient` cannot be the zero address. - `sender` must have a balance of at least `amount`. - the caller must have allowance for ``sender``'s tokens of at least `amount`."
      }
    },
    "version": 1
  },
  "userdoc": {
    "kind": "user",
    "methods": {},
    "version": 1
  }
}